:020000040000fa
:080000000002040000000000f2
:020000040000fa
:04000800d60300001b
:020000040000fa
:04000c00d603000017
:020000040000fa
:04001000d603000013
:020000040000fa
:04001400d60300000f
:020000040000fa
:04001800d60300000b
:020000040000fa
:04001c00d603000007
:020000040000fa
:04002000d603000003
:020000040000fa
:04002400d6030000ff
:020000040000fa
:04002800d6030000fb
:020000040000fa
:04002c00d6030000f7
:020000040000fa
:04003000d6030000f3
:020000040000fa
:040034006c03000059
:020000040000fa
:04003800d6030000eb
:020000040000fa
:04003c00d6030000e7
:020000040000fa
:04004000d6030000e3
:020000040000fa
:04004400d6030000df
:020000040000fa
:04004800d6030000db
:020000040000fa
:04004c00d6030000d7
:020000040000fa
:04005000d6030000d3
:020000040000fa
:04005400360300006f
:020000040000fa
:04005800fa020000a8
:020000040000fa
:04005c00d6030000c7
:020000040000fa
:04006000d6030000c3
:020000040000fa
:04006400d6030000bf
:020000040000fa
:04006800d6030000bb
:020000040000fa
:04006c00d6030000b7
:020000040000fa
:04007000d6030000b3
:020000040000fa
:04007400d6030000af
:020000040000fa
:04007800a2030000df
:020000040000fa
:04007c00d6030000a7
:020000040000fa
:04008000d6030000a3
:020000040000fa
:04008400d60300009f
:020000040000fa
:04008800d60300009b
:020000040000fa
:04008c00d603000097
:020000040000fa
:04009000d603000093
:020000040000fa
:04009400d60300008f
:020000040000fa
:04009800d60300008b
:020000040000fa
:04009c00d603000087
:020000040000fa
:0400a000d603000083
:020000040000fa
:0400a400d60300007f
:020000040000fa
:0400a800d60300007b
:020000040000fa
:0400ac00d603000077
:020000040000fa
:0400b000d603000073
:020000040000fa
:0400b400d60300006f
:020000040000fa
:0400b800d60300006b
:020000040000fa
:0400bc00d603000067
:020000040000fa
:0400c000d603000063
:020000040000fa
:0400c400d60300005f
:020000040000fa
:0400c800d60300005b
:020000040000fa
:0400cc00d603000057
:020000040000fa
:0400d000d603000053
:020000040000fa
:0400d400d60300004f
:020000040000fa
:0400d800d60300004b
:020000040000fa
:0400dc00d603000047
:020000040000fa
:0400e000d603000043
:020000040000fa
:0400e400d60300003f
:020000040000fa
:0400e800d60300003b
:020000040000fa
:0400ec00d603000037
:020000040000fa
:0400f000d603000033
:020000040000fa
:0400f400d60300002f
:020000040000fa
:0400f800d60300002b
:020000040000fa
:0400fc00d603000027
:020000040000fa
:04010000d603000022
:020000040000fa
:04010400d60300001e
:020000040000fa
:04010800d60300001a
:020000040000fa
:04010c00d603000016
:020000040000fa
:04011000d603000012
:020000040000fa
:04011400d60300000e
:020000040000fa
:04011800d60300000a
:020000040000fa
:04011c00d603000006
:020000040000fa
:04012000d603000002
:020000040000fa
:04012400d6030000fe
:020000040000fa
:04012800d6030000fa
:020000040000fa
:04012c00d6030000f6
:020000040000fa
:04013000d6030000f2
:020000040000fa
:04013400d6030000ee
:020000040000fa
:04013800d6030000ea
:020000040000fa
:04013c00d6030000e6
:020000040000fa
:04014000d6030000e2
:020000040000fa
:04014400d6030000de
:020000040000fa
:04014800d6030000da
:020000040000fa
:04014c00d6030000d6
:020000040000fa
:04015000d6030000d2
:020000040000fa
:04015400d6030000ce
:020000040000fa
:04015800d6030000ca
:020000040000fa
:04015c00d6030000c6
:020000040000fa
:04016000d6030000c2
:020000040000fa
:04016400d6030000be
:020000040000fa
:04016800d6030000ba
:020000040000fa
:04016c00d6030000b6
:020000040000fa
:04017000d6030000b2
:020000040000fa
:04017400d6030000ae
:020000040000fa
:04017800d6030000aa
:020000040000fa
:04017c00d6030000a6
:020000040000fa
:04018000d6030000a2
:020000040000fa
:04018400d60300009e
:020000040000fa
:04018800d60300009a
:020000040000fa
:04018c00d603000096
:020000040000fa
:04019000d603000092
:020000040000fa
:04019400d60300008e
:020000040000fa
:04019800d60300008a
:020000040000fa
:04019c00d603000086
:020000040000fa
:0401a000d603000082
:020000040000fa
:0401a400d60300007e
:020000040000fa
:0401a800d60300007a
:020000040000fa
:0401ac00d603000076
:020000040000fa
:0401b000d603000072
:020000040000fa
:0401b400d60300006e
:020000040000fa
:0401b800d60300006a
:020000040000fa
:0401bc00d603000066
:020000040000fa
:0401c000d603000062
:020000040000fa
:0401c400d60300005e
:020000040000fa
:0401c800d60300005a
:020000040000fa
:0401cc00d603000056
:020000040000fa
:0401d000d603000052
:020000040000fa
:0401d400d60300004e
:020000040000fa
:0401d800d60300004a
:020000040000fa
:0401dc00d603000046
:020000040000fa
:0401e000d603000042
:020000040000fa
:0401e400d60300003e
:020000040000fa
:0401e800d60300003a
:020000040000fa
:0401ec00d603000036
:020000040000fa
:0401f000d603000032
:020000040000fa
:0401f400d60300002e
:020000040000fa
:0401f800d60300002a
:020000040000fa
:0401fc00d603000026
:020000040000fa
:04020000d603000021
:020000040000fa
:04020400d60300001d
:020000040000fa
:04020800d603000019
:020000040000fa
:04020c00d603000015
:020000040000fa
:04021000d603000011
:020000040000fa
:04021400d60300000d
:020000040000fa
:04021800d603000009
:020000040000fa
:04021c00d603000005
:020000040000fa
:04022000d603000001
:020000040000fa
:04022400d6030000fd
:020000040000fa
:04022800d6030000f9
:020000040000fa
:04022c00d6030000f5
:020000040000fa
:04023000d6030000f1
:020000040000fa
:04023400d6030000ed
:020000040000fa
:04023800d6030000e9
:020000040000fa
:04023c00d6030000e5
:020000040000fa
:04024000d6030000e1
:020000040000fa
:04024400d6030000dd
:020000040000fa
:04024800d6030000d9
:020000040000fa
:04024c00d6030000d5
:020000040000fa
:04025000d6030000d1
:020000040000fa
:04025400d6030000cd
:020000040000fa
:04025800d6030000c9
:020000040000fa
:04025c00d6030000c5
:020000040000fa
:04026000d6030000c1
:020000040000fa
:04026400d6030000bd
:020000040000fa
:100400004f5821000eff27000e0188000000000059
:10041000000020000000e000020032000001200087
:100420002002880014000700e20007000000e0003e
:1004300003003a00c05b23000100200002003700e7
:100440000000200001002000810f70000100320038
:100450000f000700000020000000e0000200320052
:1004600000000200000000008233020000000000d3
:100470000040da000000fe00200320000000e00041
:1004800002003200002020009001880000000600d9
:10049000a1028800800478000000eb001f003700f4
:1004a000e284440054a0b4009905ba00e2844400f8
:1004b00054a0b4009906ba00e284440054a0b400e9
:1004c0000006eb00476fde00fd07b200ae018800ba
:1004d000636ce10003003a000ad801000000eb0061
:1004e0000e003700606ce10008003a00004deb00a0
:1004f0000a05e800020039003420ec000af0a000f0
:100500008b05e900f9ff3e00040037006168e10057
:10051000010032000086eb000b00070019c7ba008b
:100520000e04e0001905ba0003003a000a00e000da
:10053000dbff3a0000000600fe07b200ae028800b2
:100540008a047800f5ff37000cd0a300e20f4d00bd
:100550001c003b0089027800354dba000a05e8000e
:10056000020039003420ec000af0a0008b05e900fd
:100570000f003200254dba000a05e80002003900dc
:100580003420ec000af0a0008b05e90008003200de
:100590000c00e0000600320015cdba000a05e800a4
:1005a000020039003420ec000af0a0008b05e900bd
:1005b0008984e80054a0b4000b00e000e2ff3a0098
:1005c000000006009902ba00055d78008b05e9007d
:1005d000f7ff3200c82ade00055d78008b05e900d0
:1005e000f3ff32000c00e000f1ff320019ddba0029
:1005f000eeff37003600f800809fbe00829fbe00ed
:10060000849fbe00869fbe003200f8003400f800d0
:1006100010002000a00188000020200000d0fe0073
:100620000200fa000188a9008e007800404e2100e7
:100630005d1507000000e000030032001e40780056
:100640000000fb00201188000080fa003400f9004f
:100650003200f9004f03be004f02be004f01be0042
:100660004f00be003600f900004006003600f800da
:10067000809fbe00829fbe00849fbe00869fbe00fa
:100680003200f8003400f80010002000a0018800bb
:100690000020200000d0fe000200fa000168a9003e
:1006a00030118000004f78009e40780000512100fa
:1006b0001c1507000080fa003400f9003200f90030
:1006c0004f03be004f02be004f01be004f00be00f0
:1006d0003600f90000400600809fbe003200f8009e
:1006e0003400f80010002000a00188000020200045
:1006f00000d0fe000000fa000068a9002068a900f0
:1007000005e1a90011728000001020000080600047
:100710000000e000060032002080800000f0a7000a
:100720000000ea000000e9004f00de0020808800a1
:100730000080fa003400f9003200f9004f00be00da
:10074000004006003600f800809fbe00829fbe0079
:10075000849fbe00869fbe003200f8003400f8007f
:1007600010002000a00188000020200000d0fe0022
:100770000000fa000288a9002068a80021032000d8
:1007800010c0b3001e1307000080fa003400f90007
:100790003200f9004f03be004f02be004f01be0001
:1007a0004f00be003600f900004006000040da00ad
:1007b0000000fe0000000500f4ff2f00a903370031
:1007c0000003be003d0007006011b8000470a700e0
:1007d00007f0a10007f8a30017003a006509b1006f
:1007e0000d0032000d003500860220000628e100d1
:1007f00003003500030028006000b8000200050077
:1008000000004000818048000201490083814900c6
:100810008502e900faff3a0000000600f88f420066
:10082000050034008100d1000080d3008502e8007b
:10083000fcff3a00000006006011b8008000eb00e9
:10084000000005000001be001c0007000470a700a6
:1008500003f0a10003f8a30013003a006509b100fa
:1008600010003200090035006928e100020035005f
:1008700001002800000005000000400081804800c1
:100880008502e900fcff3a0000000600f88f4200f4
:10089000050035008100d1000080d3008502e8000a
:1008a000fcff3a00000006008000eb00000005009d
:1008b0004f89de008201780085033700c70ade0019
:1008c000f107b200f50fb20008003200e1cf42009c
:1008d000020032000170a00024000500810f7000aa
:1008e000010032000408050044000500810f70007b
:1008f00002003a00140005008502e90000004000f3
:1009000081c04800fcff3b000170a00024000500ee
:1009100007f82700078361000638e10004003a0069
:10092000f7072000878361008703710001003a0008
:1009300003f0a200889fbe008a9fbe008c9fbe006d
:10094000470ade000480a100c71ade000580a1006e
:10095000070028000785600087856100f70f2000e9
:100960000720e1009e0032000728e1009c003200d1
:10097000010678000400e000b4003200f707200010
:10098000878060000170a0000500e000c000320018
:10099000f7072000878161000370a0000506520060
:1009a0000f003a000b50e1000b0032000308e10099
:1009b00002003a000200e1007e0032000204500012
:1009c00083845800040031000001fd008101fd0016
:1009d0008402fd008a05fd006044b8002100370054
:1009e0000520e10005003d000001fd008101fd0042
:1009f0008402fd008a05fd00050652007a60e100d0
:100a0000050035000170a1004722dd0084807000e0
:100a10008a807000630037006044b800ef0266000f
:100a200007ff2f00070666000500e00006003400ff
:100a3000f08312008714dd000511de00071bdd00c6
:100a4000060171008519de007060e10005003500c7
:100a50000904780082047800030178008001eb002b
:100a6000700656000b50e10003003a0002004000ff
:100a7000838048000400370060041400e0841c00f8
:100a800002005800838058000188a300060032004d
:100a90008100d1000080d3008984d3000884d30072
:100aa0000402e800270037000178a30025003a007f
:100ab0000100e000030032008186cf006986560005
:100ac0000a0037008c0020000000e00004003a001b
:100ad00009007800880478000004eb0070025200de
:100ae0008086cf000d0646000c06e9007060e1002c
:100af000060035008000780009007800880478003e
:100b00000004eb0070065600700252000c00e0007a
:100b10000c0034008c08dd00f00316000703de0033
:100b2000868070000c00dd00074bde0006007000c0
:100b30008c4cdd000743de00868474000c44dd002d
:100b40000c0252006120e1002000350061016000cc
:100b50000700280087816400f7ff2700878364006f
:100b6000070374000300e0000600320082037300f4
:100b7000040032000000e800e08048000188a30083
:100b80000e003a00f70f20000720e1004a003d0068
:100b90000170a1004722dd00810072008a80700090
:100ba0000000be004f06be004f05be004f04be0051
:100bb000000006006000b800faff37008100d10095
:100bc0000080d3000402e800eeff37000401780043
:100bd00089017400a10107008a807000f1ff3700cd
:100be000f7010700070278000001fd008101fd0008
:100bf000f301070087027800850372000778a300dd
:100c0000040032000001fd008101fd000602070022
:100c1000e4ff3700850362000768a3000800320084
:100c20000b50e10003003200f0ff2f00f1ff27001e
:100c3000dcff37000001fd008101fd00d9ff370016
:100c40000468a300d7ff3200faff3700f8ff27003f
:100c5000888360000b003a000000e00009003a00c1
:100c60008303640082837300020032000200be002e
:100c7000ccff37000b50e100ceff3a000200be006f
:100c8000c8ff370014002000810064003eff3700d9
:100c9000f8ff27008883610004003a000200e000aa
:100ca00002003a008c007800beff370015002000db
:100cb0008301640039ff370001f82700000020009d
:100cc00081007500b7ff3700889fbe008a9fbe0075
:100cd0008c9fbe001b0020000202be00058668003b
:100ce00006002800060666004709de00f20fb20083
:100cf000820032000243e80080003200c729de0093
:100d0000f30fb2007d0032000343e8007b003200a5
:100d1000f107b2000170a000f507b2000570a00055
:100d2000c708dd004903de00868070004700dd0053
:100d3000c72add004923de00868272004722dd00db
:100d4000030551000403500085835800030031005f
:100d500000004000818048000a05e9008c1f7800ef
:100d60008a9fbe00040050008580580004024200a3
:100d700085824a0000004000818048000005eb00a9
:100d80000004be006033b8000406be000d48e10058
:100d900056003100110009004dccd8000c01b800fc
:100da0000d02b8008481410060824a0082835300b2
:100db00003045c0084845c0060055d000a00e000c0
:100dc00025003a00800578000d40e100490031001f
:100dd0008800780007007800110009004d88d800cd
:100de0000c01b8000d02b8008481410060824a0005
:100df0006003110083835b0004045c00e0845c00fa
:100e00000900e00021003a004f01be000300e000ad
:100e10002b003200e3016000070673008c81710033
:100e200001003200640070004200de004e5edd0012
:100e30000c007000c258de0001e0a0008301070032
:100e4000cf017800818071004f06be004f05be00c3
:100e50004f04be00000006008c8343000d044c00cc
:100e6000e0844c0060054d000000e9000a00e0004d
:100e7000d4ff32008c8343000d044c00e0844c000e
:100e800060054d000000e900ceff37000c03430071
:100e90008d834b0060044c00e0844c000000e900ae
:100ea0000900e000d8ff32000c0343008d834b00a3
:100eb00060044c00e0844c000000e900d2ff3700e1
:100ec0004200de004e5edd000c007000c258de0005
:100ed00001e0a000cf0178000300e000daff32005b
:100ee00060001000e0801800d7ff3700f0ff2f00ef
:100ef000aaff3700f0ff2f00b9ff37000404be003f
:100f00002f010700870678000004fd008104fd0022
:100f10002b010700078366000678a3000300320058
:100f20000960a7000800be002c0037000d78a30060
:100f3000020032000800be00280037000778a30036
:100f400026003a0001f0a10009f0a1000668a30004
:100f500003003200f1ff2700f0ff2f00baff370037
:100f60000d68a300030032000800be008c807000f2
:100f7000b5ff37000768a30007003a000648a30042
:100f800003003200f1ff2700f0ff2f00aeff370013
:100f90000d48a300030032006000b8008c80700090
:100fa000a9ff37000748a3000400320001f827001a
:100fb000000020008c807000a3ff3700760107003e
:100fc0000004fd008104fd000205780072010700a5
:100fd0000802be008a01780059ff37000160a000b6
:100fe000120220006280880097ff37000100e000b5
:100ff000120032000500e00010003200889fbe00a1
:101000008a9fbe008c9fbe000006eb0001f8a30083
:101010000300320060001000e08018000cf0a00017
:1010200005f8a3000300320060021200e0821a00fb
:101030000cf0a2008005eb0041ff37006000b80013
:10104000020005000383680007002800070363000f
:10105000470ade000480a100c71ade000580a10057
:10106000f70f20000720e100420032000728e100ce
:1010700040003200889fbe008a9fbe008c1f78000f
:10108000f107b200f307b2000400e0006400320090
:101090000170a0000500e000680032000370a000ad
:1010a00085054200eb07b1000204b8000302b80056
:1010b0008484440060854a00020ab80084844400a5
:1010c0000a854a00030ab8000405450004003300fd
:1010d0000804d0008984d2000a85d2008b05e9007b
:1010e0006158e1003d003500021020000901610057
:1010f0000308200089816100f707200087836400ce
:1011000008867300c84cde00c853dd008784740075
:101110004855de000300e00006003200820376003e
:10112000040032008904e80060054d000a88a3002d
:101130000c003a00f70f20000758e10044003d0082
:101140000a70a100c75ddd000a8575008a00730082
:10115000090078004f0678004f05be004f04be001e
:10116000000006000a05d1008984d3008b05e80041
:10117000f0ff3700881f7800060478009000070011
:10118000070278000001fd008101fd008c000700ce
:1011900087027800850372000778a30005003200fb
:1011a0000001fd008101fd009f0007004f04780051
:1011b00000000600850372000748a3000300320008
:1011c000f0ff2f00f1ff2700f8ff3700000020009c
:1011d00001f8270088807000f4ff3700880178004c
:1011e0004848dd00808171004848de00c850dd00bd
:1011f00001007000c850de00060478000b01780082
:101200001600070088807000d2ff37000500e0005c
:1012100005003200170020003a0007009dff37004c
:1012200081037000f9ff3a00860078004f067800cd
:101230004f05be004f04be0000000500830371008f
:10124000f9ff3200270020002e00070094ff37002e
:1012500001f8270086807000f4ff37000100e000ed
:1012600026003200610111007810e10023003c00eb
:101270006022b8007010e1000400350080027800a0
:10128000010078008000eb00700151000200e000d6
:101290000900340070031100062add00822ade00f6
:1012a0008603dd00878272000200de00860bdd000f
:1012b000070070008208de0084817100f4ff2700bf
:1012c000048262008481710004002800848262002c
:1012d0006102600005f0a6000000060004827100b3
:1012e000070032000000e800e0804800000006002f
:1012f0000002be006000b800efff37006000b800d9
:1013000000000600889fbe000004eb006138e10089
:1013100016003a000100e00008003a00c800de00b4
:101320004800dd00880020000100e00003003a00d2
:10133000c800de004800dd00680444008184cf005e
:10134000e9845400060034008908dd00f0831400ad
:101350008703de00878070000900dd000904440077
:10136000610214004f04be00000006000300e0000c
:1013700008003a00c811de004811dd008800200096
:101380000300e00003003a00c811de004811dd0050
:10139000680444008384cf00e984540006003400cc
:1013a0008919dd00f08314008713de008781710046
:1013b0000911dd0009044400e1021400e9ff3700cf
:1013c0002700200001f0a70017002000470bde00d7
:1013d000f60fb200040032000643e8000a003200b3
:1013e0004702b3000000060001037800f607b200d0
:1013f0000603700002003a000703b3000000060075
:101400008702b3000000060001037800f607b2006f
:1014100006037000020032000770a0000000060002
:101420000760a000000006000478a300040032005a
:101430000578a300030032000168a30001003a0010
:101440000200be000160a0000000060081017000e3
:10145000270032008002eb0001f8a30003003200f5
:1014600060001000e080180015002000f407200044
:101470000202420020003400f703200087036000ce
:101480000604200000036300020820000001610040
:101490004700de00c909dd0000807100c708de00da
:1014a0000600e000080032008703710006003200e9
:1014b0001000b0000180b0000188a30002003200db
:1014c000c108de000402e800f107b200f30f2000bb
:1014d0000320e10003003d004722dd00810072008f
:1014e0002900370001f827000000eb002600370034
:1014f0006000b80000000600680212007f20e100d2
:10150000020034006000b8001f0037006011b8000e
:101510007020e100040035008001780001007800af
:101520008000eb00700252000400e000090034006b
:10153000f00312000719dd008419de000703dd0047
:10154000868171000400de00070bdd0006007000dc
:101550008408de00f7ff27008383630087037100a0
:101560000600280003036300070032000700e000c4
:1015700003003a0061016000028173000200320042
:101580001000b0000180b0000500a60000000600b9
:1015900001f0a000000006004f0ade004709de004f
:1015a000f107b200f20fb2000b003200f207b100f7
:1015b0000170a000c708dd00c901de008380700053
:1015c0004700dd000400a6000000060060001000d7
:1015d000e080180000000600810f700001003a0052
:1015e000000006008182cf000500e00010003e00f0
:1015f0008082cf00ee8242007028e10004003900b2
:1016000007003e00800078000000eb000e0037006d
:10161000708312008600de000500dd000a0037003e
:10162000708352008600dd000000eb0006003700ea
:10163000e28252008508dd00708312000603de009e
:10164000868070000500dd007507b0000501ea0026
:101650000400a6000000060060001000e0801800f2
:1016600000000600889fbe008a9fbe00841f78008d
:101670007c0007004f00780011003300f0ff2f00be
:10168000838f6c0006003b00040565000a00a7007c
:101690000800370009f0a6001000200008003700fd
:1016a000820f5400838f5c0003003900100020007b
:1016b00001003e000000200009f0a7000000ea0041
:1016c0004f05be004f04be000000e0000000060011
:1016d000881f7800030478000300e00007003d0045
:1016e00060001000e080180060011900e08119001e
:1016f00002003b0001f02d0003003700040007004a
:1017000008f0a70001f0a0004f04780000000600d8
:10171000889fbe008a9fbe00008270000402710094
:1017200004827100260032000004be000200be00e8
:101730006011b8006b092000950220000182cf00e3
:101740000a0039000541b1000082cf0007003900ce
:101750000541b1000982cf00040039000541b10004
:101760000882cf00010039000541b1000542520056
:10177000120032000a003b008281710061016400a6
:101780008100d1000080d3008984d3000884d30075
:101790008b05e8000442e800f7ff3a000700370035
:1017a0000804440089844c000000480081804800ff
:1017b0008b05e9000442e900f9ff3a000300070045
:1017c0004f05be004f04be0000000600810020004f
:1017d000618055000b003d000b00200061fe2f00d2
:1017e0000100e1001d00340082817100610164008c
:1017f0008904d1000884d3000000e800faff3a0011
:1018000071002000610064000300700002006000ad
:101810000900320061044400e0844c000988a500fe
:10182000050032008b05e8006808e10002003a007c
:101830008904d1000884d300f20f20000258e1008f
:1018400005003d00c75ddd00f907b2008980750025
:1018500008007800000006000bf827008b007800d5
:10186000000005000004be0014fc07000003be00d9
:101870000405be000200be0010fc0700844f750086
:10188000000006004f02b000889fbe008a9fbe0085
:101890008c9fbe008e1f78000005be000204be00b3
:1018a000b2af9f00c3af9f00b2b79f00c3b79f0006
:1018b000cfae97000df0a10002067800e00f5600b1
:1018c000e08f5e00c3033200faaf9f008bb79f002a
:1018d0000000200001f82300800f5500818f5d007b
:1018e000bc0332008fb2970005f0a1007faa9700d9
:1018f00094b79f00a5b79f000000200001f82700c3
:10190000800f5200818f5a0003003c00800f560068
:10191000818f5e00040034000a01be000800be0092
:1019200004fc0700b20337006033b8007fa99700ba
:101930008fb19700e00f5100e08f590029003d0062
:101940002600200007002000f0ff2f00f1b7240040
:10195000800f5600818f5e0022003c006033b8008b
:10196000f0ff2f00f1f72300800f5600818f5e00fb
:101970003300340047e8de00cfe8de00f007b100b6
:101980000180b100770110000c00be0082017800d8
:101990008301e900030033008180d1000080d3007f
:1019a000fbff37000003be00020778000e07e900c6
:1019b000030033000603430087834b00fbff37001f
:1019c0000601be006033b8008c0f51008d8f5900a6
:1019d0001b003a006103600062031300e0831b00f8
:1019e000170037000000200001f82700800f560084
:1019f000818f5e0012003a000000200001f82300f1
:101a0000800f5200818f5a007203320006003400aa
:101a10003fb09700cfb09700e00f5000e08f580024
:101a200074033d006e0337003fb19700cfb19700bc
:101a3000e00f5100e08f590069033d006900370055
:101a40000000200001f82300800f5600818f5e0007
:101a500009003a003fb29700cfb29700e00f520062
:101a6000e08f5a0060033d000a01be000000200024
:101a700001f8230055003700000020000100240079
:101a80003fb19700cfb19700800f5100818f59006f
:101a900003003a000a01be000a00be004b033700f3
:101aa0000000200001f023003fb19700cfb1970064
:101ab000800f5100818f590008003a007fa89700dd
:101ac0008fb09700e00f5000e08f58000300350002
:101ad0000a00be0078030700450337000a00be0075
:101ae000f4b79f0085bf9f00d6b79f00e7b79f0060
:101af000fb0307000200200003f827007fb29700d5
:101b00008fba97005fb39700efb39700820f520030
:101b1000838f5a0008003200e00f5200e08f5a0015
:101b2000050032000200200003f82300820f52005b
:101b3000838f5a002d003a003fb19700cfb1970034
:101b4000e00f5100e08f59000c003d000001be0085
:101b50000000200001f82300f4b79f0085bf9f001c
:101b6000d6b79f00e7b79f0057fc07007fb29700ea
:101b70008fba97005fb39700efb397007fa99700e4
:101b80008fb19700e00f5100e08f590018033d001e
:101b90000200200003082c00040241008582490055
:101ba0000402730085827300e00f5200e08f5a0038
:101bb00008003a001202200012ac88000001be00aa
:101bc0000200be0052fb07000001be003efc070001
:101bd00007033700e10f5300e08f5b0004033a0076
:101be0000004be0009f0a200020337007fa997009d
:101bf0008fb19700e00f5100e08f59000d003d00bc
:101c0000e00f5300e08f5b0004003a001002200058
:101c100010ac88000a01be00e9ff3700e10f530055
:101c2000e08f5b00080032000600200007f8230068
:101c3000070037000200200003f82300f2af9f00e6
:101c400083b79f00040037000600200007f82b0030
:101c5000f6af9f0087b79f000200200003d024004a
:101c6000820f5600838f5e005600340072ff2f00f3
:101c7000f3f72300820f5200838f5a0006003c00c6
:101c80003fb09700cfb09700e00f5000e08f5800b2
:101c900007023d00e50137007200200003f8230031
:101ca000820f5200838f5a00060034003fb1970024
:101cb000cfb19700e00f5100e08f5900db013c00ed
:101cc000fb0137000200200003f8230010fb07008f
:101cd0000005be0002a02a0083fb2300d9fc0700f8
:101ce00090b79f00a1b79f0002572a00c36e230040
:101cf0000a00be00d3fc07000002be000a01be00bd
:101d00000a00be00f4b79f0085bf9f00cdfc07000e
:101d10000006be000200200003e823000a00be0007
:101d2000c8fc07000001be00b0aa2a00a1ea2300f7
:101d3000f7fa07000001be000a00be00c1fc070060
:101d40000001be000000200001f02300f0fa0700af
:101d50000001be000c00be00bafc0700b2a32a00be
:101d600083fb2300b7fc07000001be007fb2970091
:101d70008fba97000400be00e5fa07000005be0018
:101d80000001be001fb09700afb09700e9fa07004e
:101d90000001be008300780004002f0002006200f2
:101da0000003be00b6b79f00c7b79f001fb19700e2
:101db000afb19700d6fa07000001be000a00be00ce
:101dc000590137006011b800f6ff2f00f707200017
:101dd000860f5200878f5a0007003c000200200047
:101de00003b8240097fc070090b79f00a1b79f009d
:101df00082fe2f00f3ff2f00f207b1000380b10035
:101e00002fb2970047a0de0084027800cfa8de0042
:101e1000020340008383480096af9f00a7af9f0056
:101e200085007800f107b2001fb097000200200083
:101e300003f82300020270008382700094b79f00b1
:101e4000a5b79f006033b800d6af9f00e7af9f00f3
:101e500012472c00c3012000820f5000838f5800ce
:101e60001a0034001200200003002000d2af9f00af
:101e7000e3af9f00623d2b00d3052000820f50008e
:101e8000838f5800110034001faa9700afaa970053
:101e900061024200e0824a0094af9f00a5af9f001c
:101ea0000000200001f82f001fb39700afb3970088
:101eb000060340008783480096b79f00a7b79f009e
:101ec0006000b800d0af9f00e1af9f00dfa897008f
:101ed000c208dd0081af9f00a05521000100400035
:101ee00010057800900590000a01be001fb0970011
:101ef000afb0970086fa07000006be000a01be00d8
:101f00001fb09700afb097008afa07000001be002b
:101f10000000200001f823006bfb07000002be0058
:101f20000001be000c00be00f4b79f0085bf9f00fb
:101f300044fc07000003be000e002f008101780062
:101f4000c3b79f0000016700b2b79f005fa897006a
:101f5000efa89700c500dd0000002000d0af9f0073
:101f6000e1af9f0000002000010420005fa997005e
:101f7000efa997000201400083814800d2af9f0083
:101f8000e3af9f001fb09700afb097008181d100f1
:101f90000081d3008300780001d0a1000200670017
:101fa00001d0a0005fa99700efa9970002014000af
:101fb00083814800d2af9f00e3af9f005fa99700e5
:101fc000efa997003fb09700cfb09700d6b79f001a
:101fd000e7b79f001bfc07000001be000c00be001d
:101fe0004bfa07000006be000a01be005fa897007a
:101ff000efa8970046fa07000001be001fb0970047
:10200000afb0970042fa07000001be003fb0970052
:10201000cfb097000bfc07000001be000c00be0013
:102020003bfa07000001be007fb297008fba97000d
:102030000400be0003fc07000006be005fb397006b
:10204000efb397000601be000600be00fdfb0700cf
:102050000005be000001be00fafb07000002be0042
:1020600022142f0033e523000a00be00f4b79f00be
:1020700085bf9f00f3fb070052252300c3e6230022
:102080002cfa07000001be000a00be00edfb0700ad
:1020900052302a00b3e8230026fa07000001be00f0
:1020a0000a00be00e7fb0700b2aa2a00a3ea230049
:1020b00020fa07000001be000a00be00e1fb070095
:1020c00072db2600b3ed23001afa07000001be0000
:1020d0000a00be00dbfb0700a299290093f1230050
:1020e00014fa07000001be007fb297008fba970074
:1020f0000400be00d3fb07000005be005fb39700dd
:10210000efb397000601be003fb09700cfb0970035
:1021100008fa07000001be000c00be00c9fb070062
:102120000001be000a00be0002fa070090b79f003f
:10213000a1b79f003fb19700cfb197000200be004a
:10214000c0fb07000005be000200200003042400bd
:10215000f8f907001fb19700afb19700f5f9070034
:1021600081027800000267000401be003fb09700c2
:10217000cfb09700f4b79f0085bf9f00b1fb070069
:10218000b0b79f00c1b79f007fb297008fba97008a
:102190000401be000c00be00aafb07000006be0042
:1021a00002002000030424007fb297008fba97003a
:1021b0000400be00d6f907000a01be00d4f90700ea
:1021c0000001be001fb09700afb09700d0f9070024
:1021d0005fb39700efb397000601be0099fb0700bd
:1021e0000001be000c00be00d2f907000005be00d1
:1021f0000001be003fb09700cfb09700cdf90700b7
:1022000081027800000267000200240063f72300c7
:102210000400be00f4b79f0085bf9f0089fb070044
:1022200090b79f00a1b79f00623c2200638f2b00f4
:102230007fb297008fba97000400be0081fb0700b1
:102240000006be003fb19700cfb197007fb2970064
:102250008fba97000400be00adf907000001be0070
:102260000a00be00aaf90700f284230063f72300e6
:1022700074fb07000001be000c00be00adf90700b2
:10228000225621008fab9700070141009201900078
:1022900012017800a7f90700d0af9f00e1af9f00bf
:1022a0001fa89700afa8970081f907000006be009d
:1022b000a05621008fa99700030040001005780068
:1022c000900590005fa99700efa997001fb09700b5
:1022d000afb0970097f907000a01be0095f9070013
:1022e0000c01be0093f907000001be0083007800d6
:1022f000020067000002be00b4b79f00c5b79f0090
:102300000c01be0082f907000a01be0080f9070037
:102310001fb19700afb197007df907000001be0023
:102320005fa89700efa8970079f907000005be00a5
:10233000cfaa970000002f00bfab970007026000f4
:102340000401be000800be00f4b79f0085bf9f00d7
:102350006ff907003fb19700cfb1970039fb070035
:102360000006be000a01be000800be0035fb0700e3
:102370000001be000c00be006ef907000004be00a4
:102380003fb19700cfb197007fb297008fba970007
:102390000400be002bfb07000005be00b0b79f0085
:1023a000c1b79f000a01be000800be0061f9070026
:1023b0000006be000003be00000020000130240023
:1023c000800f5600818f5e0018003c00800f560081
:1023d000818f5e001d003a00c2a32a0083332300d0
:1023e0000800be00dcb79f00e7b79f0051f9070067
:1023f0000002be000a01be000c00be00f4b79f0040
:1024000085bf9f0042f907000001be007fb2970020
:102410008fba97000400be00e7f807005fb397008b
:10242000efb397000000e00029003400a22c2f0039
:10243000931427007fa897008fb0970001fb070037
:10244000a22c2f0093142700e000370087017800aa
:1024500003f0a1000c01780000002000613124008d
:10246000800f5100818f590011003c0000002000b6
:1024700061312c00800f5600818f5e0014003a00fd
:102480000a01be000c00be00dcb79f00e7b79f004a
:102490001ff907000001be000800be006408070025
:1024a0005fb39700efb397000000e00008003c0026
:1024b0000226240023da20007fa897008fb097001f
:1024c000e0fa07000226240023da2000bf003700cc
:1024d0008701780003f0a100060178006022b800af
:1024e0000000200001f02300800f5100818f59006f
:1024f0003a0034004798de0022f82f000001410026
:1025000000002000010820000201e9000300330060
:102510008180d1000080d300fbff37000000430022
:1025200081804b00010678008c01780003f0a10047
:10253000479ade00cf9ade000401be00f207b10028
:102540000380b100b2b79f00c3b79f00f4ff2f0014
:10255000f5072000bfb197008301e90003003300b5
:102560008582d1000482d300fbff37000482ea0099
:102570008582ea008501660000016200fd072000f7
:102580008d026600000278000570a0003fb797003a
:10259000770017000000e900030033008582d100b6
:1025a0000482d300fbff3700e00f5300e08f5b0095
:1025b00002003d0060021200e0821a000a00be0024
:1025c000f4b79f0085bf9f00d1f80700b0b79f0008
:1025d000c1b79f008fba97007fb297003fb19700b5
:1025e000cfb197000800be00f4b79f0085bf9f00e1
:1025f000d0f807008106780002002800000661007c
:102600000220270013f323000c00be008dfa070000
:102610000005be003fb19700cfb197000c00be008f
:10262000bbf807000001be000800be00b8f80700b4
:102630008221270013f3230082fa07000004be0062
:10264000c2e82b00f35b23000c00be007dfa0700fc
:102650000001be000800be00b6f807000006be007c
:102660000001be000a00be00b2f807000004be0070
:102670000a01be00a6f807000001be000c00be0063
:10268000a3f80700b0b79f00c1b79f000801be00c4
:102690000800be006bfa07000005be00c2b42b00a4
:1026a0001333230067fa0700e2a02e00d35d230056
:1026b00097f807000001be000a00be0061fa07009b
:1026c00052352b00a38823009af807000001be00b2
:1026d0000a00be005bfa070012b6200063b32300b5
:1026e0008bf807000001be000a00be0055fa070083
:1026f000b2aa2a00a3e223008ef807000001be0060
:102700000a00be004ffa07000001be000800be002c
:102710007ff807000005be000001be000800be00f3
:1027200048fa07000006be00020020000300240053
:102730000a00be0076f807000001be000c00be00d3
:1027400061f907000005be003fb19700cfb19700c7
:102750000800be003bfa07000001be003fb0970032
:10276000cfb0970073f807000001be000a00be005a
:1027700067f807000801be0065f807000001be0009
:102780000000200001f8230061f807007fb29700e5
:102790008fba9700c721dd0002002000020140002f
:1027a00083814800479bde00cf9bde00e00f530093
:1027b000e08f5b0003003c00040178001400070078
:1027c0000001be007fa897008fb097001dfa070098
:1027d000070037000800200009f823000500370033
:1027e0006044b800030037000a04be00010037004f
:1027f0000004be000800be004f0778004f06be0070
:102800004f05be004f04be004f02b100000006009d
:10281000889fbe0002047800f9072000890f540049
:102820000d0034000200200003f0270005fa070025
:10283000f807b100890f540017003400020020008f
:1028400003f02700fff90700f807b100890f5400d3
:1028500010003c001000370029f82f00890f5400a9
:102860000d003d000200200003c82000f5f907001c
:102870006806b000890f540007003d0002002000e8
:1028800003c82000eff907006806b000890f540064
:1028900001003d0009047800f20720000801410012
:1028a000cf91de00c711dd0002002000e5f907002e
:1028b0004f04be0000000600889fbe008a9fbe0035
:1028c0008c9fbe000004be000400200005f8270015
:1028d0008583600004037800840f5300858f5b00bc
:1028e00007003a000801be000800be00d5f9070045
:1028f0000001be000800be000ef8070010003700ff
:10290000e00f5000e08f58000f003c00810178007c
:1029100003f0a10000017800e00f5100e08f5900a2
:102920006a0032001002200010ac88000801be00ce
:102930000800be00f6f707000001be00e2f807003d
:102940000004be0061003700478cde00cf8cde0043
:10295000e00f5400e08f5c000f003a006044b800c4
:1029600004003700000040008180480061044400fa
:10297000e0844c00040020000508200081816200f2
:1029800004017800e00f5100e08f5900f5ff32009c
:1029900061041400e0841c00f807b1000980b10054
:1029a00081017800f307b200000178000200be0048
:1029b0000170a0000808a3000200320000004000df
:1029c000818048008984d1000884d3000000400041
:1029d00081804800940120000200200003102000a4
:1029e0006055b8006066b8000c0341008d83490053
:1029f000800f5300818f5b0006003c0006064100fb
:102a00008786490006005000878058000a0541006b
:102a10008b85490000004000818048008301d1007f
:102a20000281d3000402e900efff3a00e00f5000fa
:102a3000e08f58001b0032000226240023da200019
:102a40000000200001f82300b1f707000200200079
:102a500003f8230058f707000000e00011003500dc
:102a60000226240023da20000000200001f82300c1
:102a7000b0f707000200200003f823004ef707001c
:102a80000000e0000300340062054500e0854d00d1
:102a9000040037006000b8006100650000054500d3
:102aa00081854d00c744dd000800200000002000a3
:102ab00001f0230008044000898448008b85d10080
:102ac0000a85d3000804450089844d000800be0033
:102ad0004f06be004f05be004f04be0000000600ba
:102ae0000001be008300780001f0a1000200780020
:102af000000006000000fa0068815700cfb8970078
:102b0000e30207000080fa00000006000d00070045
:102b1000e30237008101780000027800304178003c
:102b2000b14f510002003a000204e000f9ff3a0000
:102b30009480fb001380fb00008050000000060022
:102b4000000006002f04b000889fbe008a9fbe00d0
:102b50008c9fbe008e1f7800b09f9f00a1a79f0092
:102b6000a37f9f0011007800d0a79f0091009000e4
:102b7000f1a79f00afa19700a3019000c3a79f00fa
:102b80002fa2970044029000a49f9f00afa297003d
:102b900035079000120478009204900022059000fe
:102ba000b20590006022b8006033b8000800be0093
:102bb0000a01be00750607000000e00003003d00aa
:102bc0000bf0a200d0c2b300040037005fa397004f
:102bd0000628a30008003200b0c2b300004f7800fe
:102be000cfa397008703e90087af9f001000200064
:102bf000e0a79f000f003700dfa097000138a30077
:102c00000800320000c2b300004f78004fa19700c7
:102c10000201e90082af9f0013002000e3a79f009c
:102c2000040037004fa2970084af9f008002eb00a2
:102c3000e5a79f000800be000a01be00c0ff070014
:102c4000f4ff2f00f5ff2f00f6ff2f00f7ff2700fe
:102c500004026000858260000603610087836100d2
:102c60006000b8000200200003ff27000020e10000
:102c700001a8e10002b0e10003b8e10010003a0051
:102c80002f7b97008600fb001104b100efa3970093
:102c900007004700f98f500002003e002157210035
:102ca00001003700615721002f0507006057210000
:102cb00034050700efa09700010140001400370021
:102cc0000020e10001a8e10002b0e10003b8e1004a
:102cd000120036002f7997008200fb001104b1002a
:102ce000efa1970003004700f98f500002003e005b
:102cf000a157210001003700e15721001a05070004
:102d0000e05721001f0507006fa297000401400053
:102d10005fa29700cfa19700490237006022b80058
:102d20006033b8000800be000a01be0017060700a5
:102d30000000e000680032006000b80002002000df
:102d400003ff2300d0af9f00e1af9f00f2af9f00d1
:102d500083b79f008006eb000802be000a03be0096
:102d600094b79f00a5b79f00b6b79f00c7b79f0055
:102d7000070037008d06e8000800be000a01be000b
:102d8000d0af9f00e1af9f00f2af9f0083b79f00dd
:102d90006022b80006002000470224005fa89700c8
:102da000efa897007fa997008fb1970054070700fd
:102db0000004be000205be000002be000203be0009
:102dc0001fb09700afb097003fb19700cfb1970009
:102dd000ee0507000000e000e6ff3d000006eb0006
:102de0005fac9700efac97007fad97008fb5970071
:102df0002500370040ed2f00808f560019003d0060
:102e00000c00e00016003a006022b8000600200026
:102e1000073524001fb09700afb097003fb197006f
:102e2000cfb19700360707000002be000203be00c4
:102e300094b79f00a5b79f00b6b79f00c7b79f0084
:102e40006022b80006002000073524000800be00fc
:102e50000a01be002a0707000004be000205be00ea
:102e60001c0020006022b800060020004702240059
:102e70000800be000a01be00720607000004be0082
:102e80000205be008d06e9000802be000a03be006e
:102e90001fb09700afb097003fb19700cfb1970038
:102ea000ba0507000000e000d2ff35000800be00b0
:102eb0000a01be00d0af9f00e1af9f00f2af9f00bc
:102ec00083b79f001fb49700afb497003fb597003a
:102ed000cfb59700080037006022b8000600200038
:102ee00007ff2300d4af9f00e5af9f00f6af9f0020
:102ef00087b79f008006eb00af7a97000500fb00c4
:102f0000b8040700b07f9f007fa3970060002000f7
:102f10000600e000010035007fa0970071c6b300f5
:102f2000bf7b970081cf53000a003a00ffa09700b3
:102f30000100e000cb013200cb0137008d0f5000c3
:102f4000cf013c0090b79f0052c6b300e2cf9f0074
:102f50001e003700bf799700e3cf9f0002003700c3
:102f600064c6b300e4cf9f000000e80090b79f0064
:102f700060c6b300efca970080cf520013003a003a
:102f80000d00e00008003d006000b80002002000d5
:102f900003ff2300d0af9f00e1af9f00f2af9f007f
:102fa00083b79f008006eb0061c6b300e1cf9f00ae
:102fb00070c6b3003f799700804f51000300320084
:102fc0009fb197008d81410093b79f005faa970042
:102fd000efaa97007fab97008fb39700d4b79f00fd
:102fe000e5b79f00f6b79f0087bf9f000800be00af
:102ff0000a01be0090af9f00a1af9f00b2af9f003b
:10300000c3af9f000006eb000802be000a03be002b
:10301000e49f9f00f59f9f0086a79f0097a79f00b2
:10302000310037005fb29700efb297007fb397008f
:103030008fbb97001fa89700afa897003fa99700e4
:10304000cfa99700ff050700580807000004be003d
:103050000205be007805070080027800b5a79f0032
:103060005fb29700efb297007fb397008fbb9700d6
:103070000800be000a01be00a10607001faa9700b3
:10308000afaa97003fab9700cfab97009c05070016
:103090000002be000203be0007f0a20094af9f0032
:1030a000a5af9f00b6af9f00c7af9f006022b800da
:1030b00006002000470224005fb09700efb09700a1
:1030c0007fb197008fb99700de0507000002be00b0
:1030d0000203be00d4b79f00e5b79f00f6b79f007c
:1030e00087bf9f000c06e8009fb29700850f56002f
:1030f000ccff35006f9c9700ff9c97000fa59700b1
:103100009fa597006022b800060020004701240018
:103110005fb09700efb097007fb197008fb997002d
:10312000770607000002be000203be00d4b79f006e
:10313000e5b79f00f6b79f0087bf9f001fa89700c5
:10314000afa897003fa99700cfa997000f050700e8
:103150000000e0000f0035005fb29700efb297006b
:103160007fb397008fbb97001fa89700afa8970069
:103170003fa99700cfa99700040507000000e000d1
:1031800011003a00bfa297000508a3000800320012
:103190000d0037006000b8006011b800d0b79f0084
:1031a000e1b79f00f2b79f0083bf9f000600370082
:1031b0006022b8006033b800d4b79f00e5b79f0025
:1031c000f6b79f0087bf9f005fb29700efb29700ee
:1031d0007fb397008fbb97000800be000a01be00b6
:1031e0004d0507000002be000203be0094af9f0021
:1031f000a5af9f00b6af9f00c7af9f006022b80089
:1032000006002000470224005fa89700efa897005f
:103210007fa997008fb19700390607000004be0010
:103220000205be000002be000203be001fa89700f8
:10323000afa897003fa99700cfa99700d80407002f
:103240000000e000090035008d06e80060c6b3000c
:10325000efca970080cf520008003a001fb39700d2
:103260000603e80096b79f00110037005fac970097
:10327000efac97007fad97008fb5970050c6b300b5
:103280006fc99700804f510009003a000802be0044
:103290000a03be00d4b79f00e5b79f00f6b79f00b2
:1032a00087bf9f008002eb00d5af9f00070037006b
:1032b0000800be000a01be00d0b79f00e1b79f0022
:1032c000f2b79f0083bf9f00ddaf9f006fa69700fe
:1032d0000001eb00b2a79f00c29f9f00e29f9f00ea
:1032e0009d9f9f00680037005fb29700efb2970084
:1032f0007fb397008fbb97001fa89700afa89700d8
:103300003fa99700cfa997004e050700a707070020
:103310000004be000205be00c7040700e90f50000c
:103320000100340090002000dfa197000348a300b3
:103330000c003a000000e0000a003a0071c6b30039
:103340003f7a9700814f520006003a00dfaa9700ab
:103350000500e00003003d003fa397008606e8005b
:1033600021003700cf9b97000700e0000c003a00d7
:10337000dfa897000100e00009003d000c014700b4
:10338000e1c2b300014978000c06e8000fa99700dc
:103390000201e90082af9f0013002000c39f9f003d
:1033a0000c014700bfa697000300370001c3b3001c
:1033b000015978008d06e9000d00e000fbff3a009e
:1033c0003fa29700040646008c00470005c3b300e7
:1033d000854840000c06e8000480ea000fab970027
:1033e0000003430086af9f005fb29700efb29700e3
:1033f0007fb397008fbb97000800be000a01be0094
:10340000bf0507001faa9700afaa97003fab970020
:10341000cfab9700ba0407000002be000203be0053
:1034200007f0a20094af9f00a5af9f00b6af9f002a
:10343000c7af9f006022b8000600200047022400aa
:103440005fb09700efb097007fb197008fb99700fa
:10345000fc0407000002be000203be00d4b79f00b8
:10346000e5b79f00f6b79f0087bf9f00dfaa9700d0
:103470008502e900d5af9f006f9b97000603e80027
:10348000e69f9f00bda79f00ef9b97001fb097008e
:10349000808f530005003d00afa0970041009000d1
:1034a00065005000800f56008fff39009f9e9700e7
:1034b0004f9997000200e00007003a00dfa1970053
:1034c0000348a300040032000c004700e1c2b3002f
:1034d000014878000c06e8000c0047000048eb00ab
:1034e00051c6b3006fca9700814f520036003a00b0
:1034f000af9a97008500e900010147000049eb0001
:103500008001eb000d00e00002003d008d06ea00a6
:103510001300200022002000810378008faa97006a
:10352000000478000b003700810378000703470090
:10353000a4002000110009008406d80001027800d0
:103540008006780000c3b300004b42000201e9008e
:103550008502e9008700e9000d00e000f2ff3a0073
:103560000200e000f0ff3c0085af9f0008007800fb
:1035700001024700b2c2b3000300e00001003200c4
:10358000d2c2b300024a78000101e900820047007c
:10359000af7997000302fb001404b10053c6b300d7
:1035a000f90f520001003e0053c4b3008348780075
:1035b0000faa97000482e90084af9f00820f560093
:1035c00001003d00e8020700dfa29700638062006f
:1035d000e20f500015003a000fab97000600e00024
:1035e000120034000e007800e602070006003700e3
:1035f0008fab9700870047008080400000014700a4
:10360000924878000000e900efa09700810f500079
:10361000f7ff3d00010047000fa9970001032000bc
:103620006d0207000001eb00c2a79f000e007800aa
:10363000d40207005fa29700cfa197000001780095
:103640008e0078003f9897004a0007004f077800e7
:103650004f06be004f05be004f04be002f04b10050
:103660000000060010002000e48f460033fe3d00fd
:1036700090b79f0053c6b300e3cf9f0053fe3700bf
:103680000d00e00036fe350090b79f0046fe370083
:103690008201780001017800f1ff2700d80237008d
:1036a000881f78000004780000082000808f5000f8
:1036b0001a00350010082000808f50000d003400e3
:1036c00030082000808f500014003a0092007800eb
:1036d0006880500000097800100278009002900085
:1036e00020039000b0039000049cbe000694be002e
:1036f00008003700920278006480520000097800c8
:103700009000900010007800aa030700009cbe0003
:103710000294be0010002000010037000000eb0002
:103720004f04780000000600889fbe000004780067
:103730004800900082047800808f54000100360019
:103740008004780009017800580090001b020700ef
:10375000580090000900400050049800c8009000f4
:1037600089845000490498000048eb004f04be00d3
:1037700000000600f2874700889fbe008a9fbe00b7
:103780008c9fbe008e1f78008004780001057800b1
:1037900002047800830578006107620002003a00a5
:1037a0008b0f540008003900080178008a00780067
:1037b00009007800dcff07008b0f5400020039007d
:1037c000880578001e003700088655000c01780037
:1037d000f00f560001003600020120000102200017
:1037e0007e805700fc0107008c067800050037003a
:1037f00002012000fe80570009007800caff070080
:10380000f0865600ef8f5600f9ff3e004461de005f
:1038100000ff2f008091b9000c014100fe8057008d
:1038200009007800c0ff07000e00e00004003a0025
:10383000080178008a00780009007800baff0700c4
:103840000b0078004f0778004f06be004f05be0002
:103850004f04be002f01b10000000600000005006b
:103860000000050000000500000178000040eb00aa
:103870008080fb0081804000435421008181410011
:10388000134278000404e00004003a005054210080
:10389000810040001140780000000600920178008d
:1038a000934f520005003a0050542100810040001f
:1038b000114078000309e800010037000040e800eb
:1038c000ea4f5000eaff360000000600f687470086
:1038d000889fbe008a9fbe008c9fbe008e1f78000e
:1038e000000578000104780083057800040678005c
:1038f0000000eb00c0b79f008080eb00d1b79f00b5
:10390000e0b79f00f2b79f000008200080bf9f0033
:1039100098007800010078008004eb000100370077
:103920008904e800304178000204e000030032001e
:1039300053c2b300834f5100f9ff3a000900e00081
:1039400004003200090178000a00780076ff0700c1
:10395000188c44001807780050c2b3009e4f100026
:103960003f013a000e07e8000e0c78001000370007
:10397000cfb097000100a0000b003700cfb0970038
:103980000110a00008003700cfb097000120a00070
:1039900005003700cfb097000130a00002003700cb
:1039a000cfb097000140a000c1b79f00000ce80015
:1039b0001800780090407800b2c2b30082cf500067
:1039c000f1ff320007003c0002c2b30082cf50007a
:1039d000f0ff320032c2b30082cf500007003a003d
:1039e000efff3700d2c2b30082cf5000e0ff3200b9
:1039f00002c3b30082cf5000e0ff3200a2c2b30086
:103a000082cf50000d003a00000ce8001c80e90055
:103a1000000e780010007800e0b79f000000e00082
:103a20000f003d00cfb097000100a200c1b79f007a
:103a30000000ea00e0b79f000900370039010700e5
:103a4000e0b79f0001003700000ce8001800780084
:103a50009000fb000103b100e98f5000faff36002f
:103a60004fb097000008a300020032000010a10030
:103a7000c0b79f0018007800e1c2b30090cf1000db
:103a800016003a008000eb00d1b79f000000e8006c
:103a9000000c7800a1c2b30090cf100006003a00dd
:103aa000000ce8001c80e900000e7800100078008f
:103ab000d0b79f00090037001a010700d0b79f0058
:103ac00001003700000ce800180078009000fb00af
:103ad0000103b100e98f5000faff360008007800ba
:103ae00061ff070080467800180078001000fb0096
:103af000bc01070091062000810f50003800320001
:103b000012003c0041062000810f500034003200ba
:103b10000a003c0011062000810f500020003200f6
:103b200031062000810f5000a00032005102200019
:103b3000810f5000bc003a00b4003700710620002d
:103b4000810f5000b8003c008800370001072000ba
:103b5000810f50005c00320007003c00e1062000ad
:103b6000810f50007a003200f1062000810f5000d2
:103b7000ad003a003900370051072000810f500096
:103b80002700320081072000810f500042003200e0
:103b900031072000810f5000a3003a008f0037004a
:103ba0008d80fb000c01780000fe2f000f0040000c
:103bb000bbfe07000000e000a800320018007800fb
:103bc000000ce8009041780002fe2f000f01410038
:103bd000f88057000a00780021ff07000e00370028
:103be0008d80fb008c0178001200200000fe2f0069
:103bf0000f004000a70107000000e000970032001e
:103c0000180ce80002fe2f000f014100f880570059
:103c10000a00780011ff07008084440090003700fc
:103c20008d80fb008c0178000001eb0000fe2f006e
:103c30000f004000970107000000e00087003200fd
:103c4000180ce80002fe2f000f014100f880570019
:103c50000a00780001ff0700efff37008d80fb00ae
:103c60008c0178000001eb0000fe2f000f004000e7
:103c7000880107000000e00078003200180ce8001e
:103c800002fe2f000f014100f88057000a00780063
:103c9000f2fe0700e0ff37008d80fb008c0178000a
:103ca0000001eb0000fe2f000f004000790107002b
:103cb0000000e0006900320018007800000ce80005
:103cc000904178001c0037008c0178000001eb0067
:103cd000010f200000fe2f000f0040006d010700c3
:103ce0000000e0005d003200180ce8000fb0970003
:103cf0009fb097002fb19700bfb19700e00f500021
:103d0000e08f5800e00f5900e08f590009003a0099
:103d1000cfb597006fb49700c05321001901070079
:103d20000b0278008801780000017800c15321005f
:103d30004700370083c7b30002fe2f000f01410088
:103d4000f88057000a007800c5fe0700b2ff370070
:103d50000b8144008d80fb008c01780000fe2f0059
:103d60000f004000a30107003c0037008d80fb00de
:103d70000c01780000fe2f000f00400048fe0700f5
:103d80000000e0003500320018007800000ce80068
:103d90009041780002fe2f000f014100f88057008b
:103da0000a00780067fb07009bff370000c8b300dc
:103db00080cf560029003a00180ce8001c80e9006a
:103dc000000e780010407800e0df9f001300200014
:103dd000e2fd2f000f0141000800370000c8b300ca
:103de00080cf56001d003a00180ce8001c80e90046
:103df000000e78008001eb0010017800f880570079
:103e00000a00780097fe070083ff370000c8b30060
:103e100080cf560011003a00180ce8004fb297000e
:103e2000efb19700080037000e0c78000000eb009f
:103e3000c0b79f00e0b79f000080eb00d0b79f00a5
:103e40000002eb00840178001200200021542100c0
:103e50000a00780047fe07006fff3700180ce800e3
:103e6000090078004f0778004f06be004f05be00de
:103e70004f04be006f01b100000006008200fa008e
:103e8000889fbe008a1f78000005780082047800b1
:103e9000c13f9f000004eb001000370009027800ca
:103ea00088017800a2f72f000f01410081f72f0051
:103eb0008f8040000a00780084fe07000800400060
:103ec000880f500004003d00b004200010ac8800b2
:103ed0000084eb0004003700000478004f3897009e
:103ee0001004e000edff3a00080078004f0578006c
:103ef0004f04be000080fa00000006008000780039
:103f00001000200002022000828f500004003200c6
:103f1000e9805000e48f5000010036000000eb0003
:103f200000000600889fbe008a1f78000005780008
:103f30000a047800984478000805e8000900fb00ae
:103f4000eeff07000000e000f9ff3a00b0c2b30046
:103f500080cf540005003200d0c2b3008000eb00d7
:103f600080cf540005003a00020037008000eb00cb
:103f700001003700110020000804e8000000eb00f9
:103f800003003700ea00b900020050000003b0004f
:103f90003801fb0003fd2f0082814100e98f5100b1
:103fa000f8ff36000100e00001003a000000ea00de
:103fb0004f0578004f04be00000006008001780025
:103fc00002003700b15978000201e9000200e00068
:103fd000fcff3a0000000600889fbe008a9fbe00da
:103fe000800478000200e0005b00320001407800ad
:103ff000814c780082814400f1f99f00e20f51006a
:104000005500360091449800a1449800e1f99f00c2
:10401000d1f99f00e60f51004f003600b1449800df
:10402000c1f99f00e80f51004b0036000905ea0076
:10403000630565000a8444000a055100c1ff2f0092
:10404000010565000080fb008000eb0012102000dd
:1040500013102000a4010700008cbe000a014400d8
:1040600060b99f0071b99f00e80f55003a00360013
:1040700020049800310498004004980051049800ee
:1040800020b99f0031b99f0040b99f0051b99f00ee
:10409000f80f550030003600600498007104980055
:1040a000000c9800110c9800200c9800310c98001e
:1040b000400c9800510c980020b19f0031b19f0036
:1040c00040b19f0051b19f0060b19f0071b19f004e
:1040d00000b99f0011b99f0064016400780141009c
:1040e00002044400020555006011b8000203be003e
:1040f0000002be000403be006022b800000072008f
:104100008180720002017300838173001000370008
:10411000009cbe000294be00400498005104980028
:104120006204980073049800000c9800110c980029
:10413000220c9800330c9800400c9800510c980009
:10414000620c9800730c98000a02b1000802b000db
:10415000ff0f5500eeff3e00090078004f05be003e
:104160004f04be0000000600881f7800000478009d
:1041700008007800d7000700080078004f04780096
:104180000000060080007800040037003104e000e1
:1041900002003a0000005100000006000101780012
:1041a0000108a300f9ff3a0081017800310178008d
:1041b000f4ef2f00020242000281ea0002016200d5
:1041c0000408280004016100f7ff32008300780032
:1041d000010178003104e000fdff3a0000005100c9
:1041e00000000600f1fb2f0080804000f98f500096
:1041f00001003e000050a00000000600f9ff37005b
:10420000f28747008e1f78000202780003017800d1
:104210000000e000020032000007780001003700d3
:10422000728757008002eb000100e00001003200bd
:104230008102e90070805700060009000018eb00b9
:104240000080eb0080bf9f002310200093bf9f00e1
:10425000aebf9f00b1bf9f00c5bf9f000100e0003f
:1042600003003d00b104200011ac880006003700b7
:10427000004feb00eebf9f00debf9f008400780080
:1042800070805700b30007004f0778002f01b1007e
:104290000000060084082000848f50001d003200ba
:1042a0000d003c0014082000848f500027003200cd
:1042b00002003c000408200004003700240820000d
:1042c000848f50003600320044082000848f500054
:1042d00047003a003a003700040a2000848f50005b
:1042e0002900320004003c0004092000848f5000a3
:1042f0003f003a002a003700020c2000828f500055
:1043000033003200020f2000828f500038003a0044
:104310002f0037009380e9000200e0000500320022
:10432000810978001102fb00cfa2de00612bb900e9
:104330002c00370081097800114278000482fb00cc
:104340008002eb006033b8002600370013027800cb
:10435000e40052000200e00006003200810978000b
:1043600011027800910290004fabde0086037800c6
:104370001c0037008109780011027800910290003a
:104380006033b800170037009380e9008109780096
:1043900011027800cfa2de00612bb90011003700b6
:1043a00093027800e88052008109780011027800b9
:1043b0009102900021039000b103900009003700a2
:1043c0009380e9000200e00002003200efff3700b6
:1043d0009380e90081097800110278008002eb00e7
:1043e0006033b8000498be000690be0010000500bf
:1043f0000000050044082000848f50002500320092
:1044000008003c0014082000848f50001400320083
:1044100024082000848f500024003200040820006b
:104420000c00370004092000848f50001f00320068
:1044300004003c0084082000848f500024003a00cf
:104440000e003700040a2000848f50001100320053
:10445000040c2000848f50001d003a000d0037002e
:104460009380e900810978009100780001087800c4
:10447000cf91de008288be00140037009380e900ef
:10448000810978009100780001087800824878005e
:104490000e0037009380e9008109780091007800d0
:1044a0000108780082087800080037009380e9004e
:1044b0008109780091007800010878006112b90044
:1044c000612bb9008498be008690be0010000500e4
:1044d000000005000101780080017800008268007a
:1044e0000408a300050032001300370032407800b2
:1044f000805978000004e0001400320003027800c4
:104500000208a300f9ff3a00030078000100370019
:104510000318780082007800b2017800f5ef2f00d0
:10452000838242000382ea000482620005082800b8
:1045300005026200f6ff3200000278003141780087
:10454000025878000204e000fbff3a000400780003
:10455000000006000200fa00881f780000047800be
:10456000e2bf9f00648157000800780043fe070007
:10457000980090000148a300010032000080eb0089
:104580004f0478000080fa00000006008f1fd10061
:104590007c0207008f87e9000000e00000000600b1
:1045a000809feb00770207008f87e9000000e000a2
:1045b0000000060081037800c0f007000001be0083
:1045c0006000b8000478a30013003a006220e10004
:1045d00015003e000d0039008301d1000281d30097
:1045e0008180d3008301d1000281d3008180d30078
:1045f0008301d1000281d3008180d3000538b0004f
:10460000c42add00f300b2008381720007f0a70026
:1046100003f0a0000000060083ff27000200200036
:104620006110b900f9ff370003ff2700f7ff3700db
:10463000140020000bf437001400fa00889fbe001d
:104640008a9fbe008c9fbe000004be000205be0013
:10465000680047000a90be000890be008402070070
:104660000070a7000bf0a100304320009e029000d4
:1046700080825200b0fe2f000028e10011003d00b2
:10468000b0fc2f000028e100150034001e09900046
:104690008e0890007e0090000501b0000201d1005c
:1046a0008180d3000080d3008502e800fbff3a0040
:1046b0000b00e000a9023b0060001000e080180041
:1046c000a6023700f0ff2f00f1ff27000b00e000eb
:1046d000a2023b0001002800000020009f023700da
:1046e0006000b8009d023700020ab900001bb90043
:1046f0000200b80081004200810043000000060073
:104700008c9fbe008a9fbe00889fbe00ca01070022
:104710000bf0a200040037008c9fbe008a9fbe00f1
:10472000889fbe00c40107000c48e1000b003a005e
:104730000c40e100020032008b010700400037000e
:104740008b066d003e0032000af0a100f30120004c
:10475000f2ff2f006110b900390037000c40e10072
:10476000370032000940e100010036007e010700f9
:104770008a856d00cf5dde000b0575000006eb003d
:104780008804fd0089045400010032007d01070007
:104790000a04e00011003a000800e000280032009e
:1047a00004004000858048000601490087814900d7
:1047b0000358a300180032008301d1000281d30006
:1047c0008180d3000080d3000c86d3000100390023
:1047d000610676000804e800180037000400500065
:1047e0008580580006015900878159000600310074
:1047f0000af0a2000c06ea0060001800e080180031
:1048000060011900e081190003003a000004eb0088
:104810000005eb000a0037000348a30007003a0038
:104820000c06460000004800818048000201490053
:10483000838149000804e900f7ff3700af01370022
:10484000c90137008c9fbe008a9fbe00889fbe00b2
:10485000790107000b056d000940e1000a003a00ec
:104860000800e000020032000c40e10006003a00bf
:104870000af0a1000c047800f3012000f2ff2f00e1
:104880006110b9009d0037000c40e1009b00320030
:104890000800e000990032000c48e10002003a00f4
:1048a0000004eb00030037000900e00004003a00b8
:1048b0000c0478006000b8006011b8008f00370069
:1048c0000348a30006003a00000040008180480031
:1048d00002014900838149000804e900f8ff37001c
:1048e0000748a30006003a000402420085824a00fd
:1048f00006034b0087834b008904e900f8ff37006b
:10490000fd3f20008d845400090454008a1f780064
:10491000881f780000047800810478000205780080
:10492000830578006000b8006011b8000d04200015
:10493000050037000804440089844c000a054d0036
:104940008b854d00080031000404540085845c0010
:1049500006055d0087855d008381d2008d06d3004a
:10496000f4ff3b00070037000404440085844c003a
:1049700006054d0087854d008381d2008d06d3004a
:10498000ecff3b000804440089844c000a054d00fc
:104990008b854d00080031000404540085845c00c0
:1049a00006055d0087855d000281d2008d06d3007b
:1049b000f4ff3b00070037000404440085844c00ea
:1049c00006054d0087854d000281d2008d06d3007b
:1049d000ecff3b000804440089844c000a054d00ac
:1049e0008b854d00080031000404540085845c0070
:1049f00006055d0087855d008180d2008d06d300ad
:104a0000f4ff3b00070037000404440085844c0099
:104a100006054d0087854d008180d2008d06d300ac
:104a2000ecff3b000804440089844c000a054d005b
:104a30008b854d00080031000404540085845c001f
:104a400006055d0087855d000080d2008d06d300dd
:104a5000f4ff3b00070037000404440085844c0049
:104a600006054d0087854d000080d2008d06d300dd
:104a7000ecff3b000b00e00004003d000404440098
:104a800085844c0006054d0087854d000006eb002f
:104a90008301d1000281d3008180d3000080d30044
:104aa0000c86d3008301d1000281d3008180d30022
:104ab0000080d3000c86d300890474008b05750038
:104ac0008b84740001003200610676004f04780088
:104ad0004f0578000348a30007003a000c06460083
:104ae000000048008180480002014900838149009c
:104af0000804e900f7ff3700000137001a0137000a
:104b00008c9fbe008a9fbe00889fbe00ca0007001f
:104b10000b056d008a0578000c40e10008003a00a2
:104b20000900e00082003a000af0a1000c047800bd
:104b3000f3012000f2ff2f006110b9007c00370064
:104b40000c48e10004003a00870007000900e0007b
:104b500077003a00f4ff37000800e00074003200ec
:104b60000900e00002003a007f00070070003700f3
:104b7000ed3f20008d845400090444008a1f780012
:104b8000881f7800871f7800861f7800851f7800af
:104b9000841f7800cb19dd00c515de008b85710000
:104ba0004b11dd00450dde000a057100cb08dd006c
:104bb000c504de00898470004b04dd000440b800a9
:104bc0000546b8008c80400060814e00044eb8005d
:104bd0008c8040000d0149008001eb000318ad00fe
:104be0000456b8000c0141008d8149000002eb0021
:104bf0000420ad000646b8000c0141008d8149003b
:104c000060024a00054eb8000c0141008d81490048
:104c100060024a000556b8008c8141000d024a002e
:104c20008002eb000528ad000746b8008c814100ea
:104c30000d024a00e0824a00064eb8008c81410015
:104c40000d024a00e0824a004f0678000c5eb80070
:104c50008c8141000d024a00e0824a000656b800ed
:104c60000c0242008d824a000003eb000630ad00ca
:104c7000074eb8000c0242008d824a0060034b00d0
:104c80004f0678000c5eb8000c0242008d824a008c
:104c900060034b000756b8008c8242000d034b00a6
:104ca0008003eb000738ad004f0678000c5eb800bb
:104cb0008c8242000d034b00e0834b004f067800ce
:104cc0000c5eb8000c0343008d834b004f0478004a
:104cd0004f0578000748a3000a003a000000400092
:104ce00081804800020149008381490004024a0092
:104cf00085824a0006034b0087834b000804e900c5
:104d0000f4ff370003067800808070008280700016
:104d10000100320061067600870178000601780004
:104d20008500780004007800880478007800370057
:104d30008d0037008c06460002003a000000a600f5
:104d40000000060060004800e08048006001490063
:104d5000e08149000350a600000006008301d10055
:104d60000804e800000006000002fd008102fd00ca
:104d70000203fd008303fd008804fd008a05fd0099
:104d8000000006007048e1001a0039007d03200091
:104d90000d48e1000a0039008105700083067100aa
:104da0008c8575008d8575000006eb001cd8e7002a
:104db000610676006000b8006011b80000000600cf
:104dc0007048e1000b0039008c057800000678007f
:104dd0000100780082007800030178008001eb0078
:104de00013d8e70061067600f0845400f4ff3a001f
:104df000000006006160e1000c48ad00f085140081
:104e00008b06dd000966de000d0676008b0edd00e8
:104e10000900de000d0070008b16dd008908de0041
:104e20008d8070008b1edd000911de000d01710008
:104e30008919de00000006000d002800fc7f20001c
:104e40000d856100441cde00ef8161000c046400ec
:104e5000010032000340a0008d856300c43cde00e9
:104e6000ef8363008c846400010032000740a000df
:104e70000c40e10006003a00ef8661008286760071
:104e800081867600808676000100320018003700a7
:104e90000c48e10007003a00ef8663008686760042
:104ea000858676008486760002003200aeff070019
:104eb0000f0037000348a30005003a008106700088
:104ec0008286760083867600010032000804e800be
:104ed0000748a30005003a00850672008686760022
:104ee00087867600010032008904e8000000060091
:104ef000cf047800cf0578001b003700000278004f
:104f00008102780002037800830378008804780027
:104f10000cf0a70087ff0700fd7f20000d40e10097
:104f2000040035000d0478006000b8006011b8007e
:104f30000d0037000800e0000b003c000400780082
:104f4000850078000601780087017800e18414006c
:104f50008cff07000cf0a70076ff07000004eb00b1
:104f60000340a7000804e8004444dd006fc5610069
:104f7000880175004f04be004f05be004f06be00fd
:104f800000000600889fbe008a9fbe008c9fbe0066
:104f90000404be000605be00809fbe00829fbe00c6
:104fa00021000700040678000800be000a01be00c8
:104fb0001d000700840678004f03be004f02be00ac
:104fc0008d4f76007fb0970013003300f0ff2f0065
:104fd0008b8f6b0006003b000d0666000c00a700df
:104fe0000a00370007f0a600100020000a00370072
:104ff000880f5200898f5a008a0f5b008b8f5b00ed
:10500000030039001000200001003e0000002000d5
:1050100007f0a7000000ea004f06be004f05be00e3
:105020004f04be000000060005ff27000582610056
:10503000070032000428e1000100320024000500ce
:105040000600070001003a004400050004080500be
:1050500002000700f9ff3a00140005006f826100aa
:105060008102700085027100850272000000060056
:105070005002be00e40050005003be004439de0080
:10508000f700b200f37f2000030161000900320045
:105090000218e10016003a008501720083017300d6
:1050a000838173000008200015003a0040002000b2
:1050b0001300370085017200830173008381730040
:1050c00005003a0004a8be0006a8be00100020009b
:1050d0000b0037000201e9000402420085824a0009
:1050e00006034b0087834b000748a300f9ff3200fb
:1050f0000740a00004a8be0006a8be0020002000b3
:1051000080009800920098000000060068044700a4
:105110000294be000094be00fc0447008694be00ca
:105120008494be0009007800d1ff070008007800d1
:10513000cfff070099007800814f70000b003b0003
:105140000800be000a0007004f00b100030037004e
:10515000f3ff2700f2ff2f006110b9004f06be00d9
:105160004f05be004f04be000080fa00000006009c
:10517000e48240001078a30007003200640240007f
:105180001178a3003400be001401be0005003200f7
:105190000330a7000000060035007800b500780055
:1051a0001501be000330a000000006001800fa0040
:1051b000889fbe008a9fbe008c1f78000004be003e
:1051c0000205be000802be000a03be00443ade002b
:1051d000f07f20000006620020432000800f560070
:1051e00067003c006022b8006033b8000800be00d1
:1051f000e6fc07000000e000610032000802be008b
:105200000a03be00b4b79f00c5b79f00d6b79f0082
:10521000e7b79f00e00f5200e08f5a00e00f5b00fd
:10522000e08f5b000b003d006022b800060020000c
:10523000073324000800be000a01be0030fd07004d
:105240006022b800060020000733240032fd07006a
:105250000a0037006022b80006002000073324004f
:105260000800be000a01be002bfd07006022b80046
:10527000060020000733240021fd07000802be00bd
:105280000a03be001efd07000002be000203be00ae
:10529000f4b79f0085bf9f0096bf9f00a7bf9f00e8
:1052a000e03f2000800f560017003c007fb09700c1
:1052b0008fb897001fb99700afb99700f0af9f0064
:1052c00081b79f0092b79f00a3b79f006044b800ca
:1052d0006055b8003fb29700cfb297005fb3970018
:1052e000efb39700e00f5200e08f5a00e00f5b0031
:1052f000e08f5b0022003d006044b8000a002000ff
:105300000bff2b001e0037006022b8006033b8008e
:105310007fb097008fb897001fb99700afb997007b
:105320009ffc07000000e0000c0034007fb29700f3
:105330008fba97001fbb9700afbb97000800be0055
:105340000a01be00f4fc07006022b800060020003d
:1053500007ff2300eafc0700070037007fb2970031
:105360008fba97001fbb9700afbb97000800be0025
:105370000a01be00e8fc07000004be000205be00f2
:105380000800be000a01be004f0678004f05be00af
:0c5390004f04be000080fa000000060080
:020000040000fa
:10539c00244d0000414300004b2c0000302a00003b
:1053ac0000500000434300004d4400000024000066
:1053bc004d410000434b00002c3100002a0000003e
:1053cc00244d000044490000535400002c250000db
:1053dc002e320000662a0000002400004d4200001e
:1053ec0041540000542c0000252e000032660000b1
:0453fc002a00000083
:020000040000fa
:105400000400fa00004f7800110798001e00fb000e
:10541000e10f500003003200e20f50001400320090
:10542000260037000021ef001e009000cf80de0034
:105430001fed070002002000a347240022ee070012
:105440000244250093882400feee0700fdec0700cf
:105450000000780010088800210880000003200068
:10546000010070002008880005e1a8001300370043
:105470000621ef001e009000cf80de000ced07003b
:1054800002002000a34724000fee0700024425007d
:1054900093882400ebee0700eaec07000000780098
:1054a000600888008108800000032000010070006f
:1054b0008008880011e1a800000000000080fa00c8
:1054c000000006000400fa00204798002e409000db
:1054d0000000fb00e10f500003003200e20f50001b
:1054e0000d00320019003700004080004300de004c
:1054f000614060000080fb00000f780000000000a9
:1055000000408000680060000000e000fcff320006
:105510000068a9000d003700004080004700de0051
:10552000614060000080fb00000f78000000000078
:105530000140800000082000008060000000e000c2
:10554000fbff320000e8a900000000001e00780008
:105550000080fa00000006000c00fa00004f9800de
:10556000510798005e009000cf80de00d0ec07006d
:1055700002002000a3472400d3ed070002442500c9
:1055800093882400afee07008dec0700009fbe005b
:105590000297be000e4890000000fb00e10f500093
:1055a00003003200e20f50002d0032005800370097
:1055b00005e1a9002108800000032000010070001f
:1055c000200888000021ef00120037001e0278003a
:1055d0009e0290002e039000be0390001000200059
:1055e000f1ff2f00f2ff2f00f3ff2f00001f4200fa
:1055f000019f4a00021f4b00038f4b006e00b10059
:105600000080eb001008880005e1a80010c0b3007e
:10561000acff0700f0ff2f00010020006011b80070
:105620001e0278009e0290002e039000be039000a0
:105630000020e10001a8e10002b0e10003b8e100b0
:10564000e2ff3e0005e1a9001e0078001008880076
:1056500005e1a80010c0b3009aff07002c00370036
:1056600011e1a90081088000000320000100700002
:10567000800888000621ef00120037001e02780023
:105680009e0290002e039000be03900010002000a8
:10569000f1ff2f00f2ff2f00f3ff2f00001f420049
:1056a000019f4a00021f4b00038f4b006e00b100a8
:1056b0000080eb006008880011e1a80020c0b30062
:1056c00080ff0700f0ff2f00010020006011b800ec
:1056d0001e0278009e0290002e039000be039000f0
:1056e0000020e10001a8e10002b0e10003b8e10000
